{
  "contractName": "EmployeeContract",
  "abi": [
    {
      "anonymous": false,
      "inputs": [
        {
          "indexed": false,
          "internalType": "string",
          "name": "message",
          "type": "string"
        }
      ],
      "name": "DebugMessage",
      "type": "event"
    },
    {
      "anonymous": false,
      "inputs": [
        {
          "indexed": true,
          "internalType": "address",
          "name": "employeeAddress",
          "type": "address"
        },
        {
          "indexed": false,
          "internalType": "uint256",
          "name": "empID",
          "type": "uint256"
        },
        {
          "indexed": false,
          "internalType": "string",
          "name": "firstName",
          "type": "string"
        },
        {
          "indexed": false,
          "internalType": "string",
          "name": "lastName",
          "type": "string"
        }
      ],
      "name": "EmployeeAdded",
      "type": "event"
    },
    {
      "anonymous": false,
      "inputs": [
        {
          "indexed": true,
          "internalType": "address",
          "name": "employeeAddress",
          "type": "address"
        },
        {
          "indexed": false,
          "internalType": "string",
          "name": "firstName",
          "type": "string"
        },
        {
          "indexed": false,
          "internalType": "string",
          "name": "lastName",
          "type": "string"
        },
        {
          "indexed": false,
          "internalType": "string",
          "name": "jobTitle",
          "type": "string"
        },
        {
          "indexed": false,
          "internalType": "uint256",
          "name": "performanceScore",
          "type": "uint256"
        }
      ],
      "name": "EmployeeUpdated",
      "type": "event"
    },
    {
      "inputs": [
        {
          "internalType": "address",
          "name": "_employeeAddress",
          "type": "address"
        },
        {
          "internalType": "uint256",
          "name": "_empID",
          "type": "uint256"
        },
        {
          "internalType": "string",
          "name": "_firstName",
          "type": "string"
        },
        {
          "internalType": "string",
          "name": "_lastName",
          "type": "string"
        },
        {
          "internalType": "string",
          "name": "_jobTitle",
          "type": "string"
        },
        {
          "internalType": "uint256",
          "name": "_performanceScore",
          "type": "uint256"
        }
      ],
      "name": "addEmployee",
      "outputs": [],
      "stateMutability": "nonpayable",
      "type": "function"
    },
    {
      "inputs": [
        {
          "internalType": "address",
          "name": "_employeeAddress",
          "type": "address"
        }
      ],
      "name": "getEmployee",
      "outputs": [
        {
          "internalType": "uint256",
          "name": "empID",
          "type": "uint256"
        },
        {
          "internalType": "string",
          "name": "firstName",
          "type": "string"
        },
        {
          "internalType": "string",
          "name": "lastName",
          "type": "string"
        },
        {
          "internalType": "string",
          "name": "jobTitle",
          "type": "string"
        },
        {
          "internalType": "uint256",
          "name": "performanceScore",
          "type": "uint256"
        }
      ],
      "stateMutability": "view",
      "type": "function",
      "constant": true
    },
    {
      "inputs": [
        {
          "internalType": "address",
          "name": "_employeeAddress",
          "type": "address"
        },
        {
          "internalType": "string",
          "name": "_firstName",
          "type": "string"
        },
        {
          "internalType": "string",
          "name": "_lastName",
          "type": "string"
        },
        {
          "internalType": "string",
          "name": "_jobTitle",
          "type": "string"
        },
        {
          "internalType": "uint256",
          "name": "_performanceScore",
          "type": "uint256"
        }
      ],
      "name": "updateEmployee",
      "outputs": [],
      "stateMutability": "nonpayable",
      "type": "function"
    },
    {
      "inputs": [
        {
          "internalType": "address",
          "name": "_employeeAddress",
          "type": "address"
        }
      ],
      "name": "debugEmployeeExists",
      "outputs": [
        {
          "internalType": "bool",
          "name": "",
          "type": "bool"
        }
      ],
      "stateMutability": "view",
      "type": "function",
      "constant": true
    }
  ],
  "bytecode": "0x608060405234801561001057600080fd5b50610c5b806100206000396000f3fe608060405234801561001057600080fd5b506004361061004c5760003560e01c806332648e09146100515780633844c9b51461007e578063ad8c61581461009e578063c5bd402c146100b3575b600080fd5b61006461005f3660046107ab565b6100c6565b604051610075959493929190610b82565b60405180910390f35b61009161008c3660046107ab565b61032a565b604051610075919061095b565b6100b16100ac3660046107cc565b61034c565b005b6100b16100c1366004610869565b61049d565b6001600160a01b038116600090815260016020526040812054606090819081908490869060ff166101125760405162461bcd60e51b815260040161010990610a1f565b60405180910390fd5b6001600160a01b038716600090815260208181526040808320815160a0810190925280548252600181018054929391929184019161014f90610bd4565b80601f016020809104026020016040519081016040528092919081815260200182805461017b90610bd4565b80156101c85780601f1061019d576101008083540402835291602001916101c8565b820191906000526020600020905b8154815290600101906020018083116101ab57829003601f168201915b505050505081526020016002820180546101e190610bd4565b80601f016020809104026020016040519081016040528092919081815260200182805461020d90610bd4565b801561025a5780601f1061022f5761010080835404028352916020019161025a565b820191906000526020600020905b81548152906001019060200180831161023d57829003601f168201915b5050505050815260200160038201805461027390610bd4565b80601f016020809104026020016040519081016040528092919081815260200182805461029f90610bd4565b80156102ec5780601f106102c1576101008083540402835291602001916102ec565b820191906000526020600020905b8154815290600101906020018083116102cf57829003601f168201915b50505091835250506004919091015460209182015281519082015160408301516060840151608090940151929c919b50995091975095509350505050565b6001600160a01b03811660009081526001602052604090205460ff165b919050565b6001600160a01b038516600090815260016020526040902054859060ff166103865760405162461bcd60e51b815260040161010990610a1f565b60008551116103a75760405162461bcd60e51b815260040161010990610a98565b60008451116103c85760405162461bcd60e51b8152600401610109906109e8565b60008351116103e95760405162461bcd60e51b815260040161010990610acf565b6001600160a01b0386166000908152602081815260409091208651909161041791600184019189019061067a565b50845161042d906002830190602088019061067a565b508351610443906003830190602087019061067a565b50828160040181905550866001600160a01b03167fd08797439efdfe5dce700bd4d3c9c89e0d6dc8d09c0ef48118d79f7f61c383ac8787878760405161048c9493929190610966565b60405180910390a250505050505050565b6001600160a01b038616600090815260016020526040902054869060ff16156104d85760405162461bcd60e51b8152600401610109906109b1565b6001600160a01b0387166104fe5760405162461bcd60e51b815260040161010990610b06565b6000861161051e5760405162461bcd60e51b815260040161010990610a56565b600085511161053f5760405162461bcd60e51b815260040161010990610a98565b60008451116105605760405162461bcd60e51b8152600401610109906109e8565b60008351116105815760405162461bcd60e51b815260040161010990610acf565b6040805160a081018252878152602080820188815282840188905260608301879052608083018690526001600160a01b038b1660009081528083529390932082518155925180519293926105db926001850192019061067a565b50604082015180516105f791600284019160209091019061067a565b506060820151805161061391600384019160209091019061067a565b50608091909101516004909101556001600160a01b038716600081815260016020819052604091829020805460ff19169091179055517fd311c3a51c1b7fe9dc98d7913b57d4f583d7a9e295e316a7200485fbf3b367e89061048c90899089908990610b4d565b82805461068690610bd4565b90600052602060002090601f0160209004810192826106a857600085556106ee565b82601f106106c157805160ff19168380011785556106ee565b828001600101855582156106ee579182015b828111156106ee5782518255916020019190600101906106d3565b506106fa9291506106fe565b5090565b5b808211156106fa57600081556001016106ff565b80356001600160a01b038116811461034757600080fd5b600082601f83011261073a578081fd5b813567ffffffffffffffff8082111561075557610755610c0f565b604051601f8301601f19168101602001828111828210171561077957610779610c0f565b604052828152848301602001861015610790578384fd5b82602086016020830137918201602001929092529392505050565b6000602082840312156107bc578081fd5b6107c582610713565b9392505050565b600080600080600060a086880312156107e3578081fd5b6107ec86610713565b9450602086013567ffffffffffffffff80821115610808578283fd5b61081489838a0161072a565b95506040880135915080821115610829578283fd5b61083589838a0161072a565b9450606088013591508082111561084a578283fd5b506108578882890161072a565b95989497509295608001359392505050565b60008060008060008060c08789031215610881578081fd5b61088a87610713565b955060208701359450604087013567ffffffffffffffff808211156108ad578283fd5b6108b98a838b0161072a565b955060608901359150808211156108ce578283fd5b6108da8a838b0161072a565b945060808901359150808211156108ef578283fd5b506108fc89828a0161072a565b92505060a087013590509295509295509295565b60008151808452815b8181101561093557602081850181015186830182015201610919565b818111156109465782602083870101525b50601f01601f19169290920160200192915050565b901515815260200190565b6000608082526109796080830187610910565b828103602084015261098b8187610910565b9050828103604084015261099f8186610910565b91505082606083015295945050505050565b60208082526017908201527f456d706c6f79656520616c726561647920657869737473000000000000000000604082015260600190565b60208082526019908201527f4c617374206e616d652063616e6e6f7420626520656d70747900000000000000604082015260600190565b60208082526017908201527f456d706c6f79656520646f6573206e6f74206578697374000000000000000000604082015260600190565b60208082526022908201527f456d706c6f796565204944206d7573742062652067726561746572207468616e604082015261020360f41b606082015260800190565b6020808252601a908201527f4669727374206e616d652063616e6e6f7420626520656d707479000000000000604082015260600190565b60208082526019908201527f4a6f62207469746c652063616e6e6f7420626520656d70747900000000000000604082015260600190565b60208082526027908201527f456d706c6f79656520616464726573732063616e6e6f74206265207a65726f206040820152666164647265737360c81b606082015260800190565b600084825260606020830152610b666060830185610910565b8281036040840152610b788185610910565b9695505050505050565b600086825260a06020830152610b9b60a0830187610910565b8281036040840152610bad8187610910565b90508281036060840152610bc18186610910565b9150508260808301529695505050505050565b600281046001821680610be857607f821691505b60208210811415610c0957634e487b7160e01b600052602260045260246000fd5b50919050565b634e487b7160e01b600052604160045260246000fdfea2646970667358221220c4a6e36b27247fd22cd4daf2147cf70b6e1a5375c19750736ada1016fef823ce64736f6c63430008000033",
  "immutableReferences": {},
  "source": "// SPDX-License-Identifier: MIT\r\npragma solidity ^0.8.0;\r\n\r\ncontract EmployeeContract {\r\n    struct Employee {\r\n        uint256 empID;\r\n        string firstName;\r\n        string lastName;\r\n        string jobTitle;\r\n        uint256 performanceScore;\r\n    }\r\n\r\n    mapping(address => Employee) private employees;\r\n    mapping(address => bool) private employeeExists;\r\n\r\n    // Events for debugging and tracking\r\n    event DebugMessage(string message);\r\n    event EmployeeAdded(address indexed employeeAddress, uint256 empID, string firstName, string lastName);\r\n    event EmployeeUpdated(address indexed employeeAddress, string firstName, string lastName, string jobTitle, uint256 performanceScore);\r\n\r\n    // Modifier: Check if employee does not exist\r\n    modifier employeeDoesNotExist(address _employeeAddress) {\r\n        require(!employeeExists[_employeeAddress], \"Employee already exists\");\r\n        _;\r\n    }\r\n\r\n    // Modifier: Check if employee exists\r\n    modifier employeeExistsCheck(address _employeeAddress) {\r\n        require(employeeExists[_employeeAddress], \"Employee does not exist\");\r\n        _;\r\n    }\r\n\r\n    // Add a new employee (Anyone can call this function)\r\n    function addEmployee(\r\n        address _employeeAddress,\r\n        uint256 _empID,\r\n        string memory _firstName,\r\n        string memory _lastName,\r\n        string memory _jobTitle,\r\n        uint256 _performanceScore\r\n    ) public employeeDoesNotExist(_employeeAddress) {\r\n        require(_employeeAddress != address(0), \"Employee address cannot be zero address\");\r\n        require(_empID > 0, \"Employee ID must be greater than 0\");\r\n        require(bytes(_firstName).length > 0, \"First name cannot be empty\");\r\n        require(bytes(_lastName).length > 0, \"Last name cannot be empty\");\r\n        require(bytes(_jobTitle).length > 0, \"Job title cannot be empty\");\r\n\r\n        employees[_employeeAddress] = Employee(_empID, _firstName, _lastName, _jobTitle, _performanceScore);\r\n        employeeExists[_employeeAddress] = true;\r\n\r\n        emit EmployeeAdded(_employeeAddress, _empID, _firstName, _lastName);\r\n    }\r\n\r\n    // Get employee data by address (View-only function)\r\n    function getEmployee(address _employeeAddress)\r\n        public\r\n        view\r\n        employeeExistsCheck(_employeeAddress)\r\n        returns (uint256 empID, string memory firstName, string memory lastName, string memory jobTitle, uint256 performanceScore)\r\n    {\r\n        Employee memory employee = employees[_employeeAddress];\r\n        return (employee.empID, employee.firstName, employee.lastName, employee.jobTitle, employee.performanceScore);\r\n    }\r\n\r\n    // Update existing employee data (Anyone can call this function)\r\n    function updateEmployee(\r\n        address _employeeAddress,\r\n        string memory _firstName,\r\n        string memory _lastName,\r\n        string memory _jobTitle,\r\n        uint256 _performanceScore\r\n    ) public employeeExistsCheck(_employeeAddress) {\r\n        require(bytes(_firstName).length > 0, \"First name cannot be empty\");\r\n        require(bytes(_lastName).length > 0, \"Last name cannot be empty\");\r\n        require(bytes(_jobTitle).length > 0, \"Job title cannot be empty\");\r\n\r\n        Employee storage employee = employees[_employeeAddress];\r\n        employee.firstName = _firstName;\r\n        employee.lastName = _lastName;\r\n        employee.jobTitle = _jobTitle;\r\n        employee.performanceScore = _performanceScore;\r\n\r\n        emit EmployeeUpdated(_employeeAddress, _firstName, _lastName, _jobTitle, _performanceScore);\r\n    }\r\n\r\n    // Debug function to fetch employee existence\r\n    function debugEmployeeExists(address _employeeAddress) public view returns (bool) {\r\n        return employeeExists[_employeeAddress];\r\n    }\r\n}\r\n",
  "sourcePath": "C:\\kuliah\\blockchain\\contracts\\EmployeeContract.sol",
  "compiler": {
    "name": "solc",
    "version": "0.8.0+commit.c7dfd78e.Emscripten.clang"
  },
  "schemaVersion": "3.4.16",
  "updatedAt": "2024-12-15T20:21:37.604Z",
  "networkType": "ethereum",
  "devdoc": {
    "kind": "dev",
    "methods": {},
    "version": 1
  },
  "userdoc": {
    "kind": "user",
    "methods": {},
    "version": 1
  }
}